:020000040800F2
:1000000078D5002045010008093F0008612F00084D
:10001000053F00086D0C0008097D00080000000085
:10002000000000000000000000000000356500082E
:10003000351900080000000089450008C174000857
:100040005F0100085F0100085F010008B157000868
:100050005F0100085F0100086B1900085F010008DC
:100060005F0100085F0100085F0100085F010008F0
:100070005F0100085F0100085F0100085F010008E0
:100080005F0100085F0100085F0100085F010008D0
:100090005F0100085F0100085F0100088119000886
:1000A0005F0100085F0100085F0100085F010008B0
:1000B000297500085F010008917500085F010008BC
:1000C0005F0100085F0100085F0100085F01000890
:1000D0005F0100083D790008D57900085F0100083C
:1000E0005F0100085F0100085F0100085F01000870
:1000F0005F0100085F0100085F0100085F01000860
:100100005F01000859610008AD7500085F01000833
:100110005F0100085F0100085F0100085F0100083F
:100120005F0100085F0100085F0100085F0100082F
:10013000DFF80CD000F0E0FB004800474DC6000897
:1001400078D500200648804706480047FEE7FEE7CE
:10015000FEE7FEE7FEE7FEE7FEE7FEE7FEE7FEE777
:10016000C9740008310100082DE9F0410024061B84
:10017000254671F1000605DA01240027D0EB0700BF
:1001800067EB0101161E73F1000605DA0027D2EBBA
:100190000702012567EB030300F012FA86460E46BC
:1001A00017469C46AC4204D00025D0EB050E65EB0B
:1001B000010624B10020D2EB000760EB030C70466F
:1001C00031463A466346BDE8F08140EA01039B07A9
:1001D00003D009E008C9121F08C0042AFAD203E0BC
:1001E00011F8013B00F8013B521EF9D27047421E44
:1001F00012F8013F002BFBD111F8013B02F8013B43
:10020000002BF9D1704710B5002200E0521C835C2E
:100210008C5CA34201D1002BF8D1D8B2E1B2401AD4
:1002200010BD034611F8012B00F8012B002AF9D16B
:100230001846704780EA010210B502F00043400002
:1002400022D04A001FD0010E01EB1261C0F356000C
:10025000C2F3560240F4000042F40002A0FB022068
:1002600000047F39140400D0401C50EA124001D42D
:100270004000491EC2B20C0604EBD010401C4008DE
:10028000802A02D003E0002010BD20F001000029E8
:1002900000DA0020184310BD30B480EA010202F0F9
:1002A000004530F0004221F0004013D090B1C30D62
:1002B000D40DC2F31601C0F31600E41A41F4000194
:1002C00040F400027D34914201D3641C00E04900F7
:1002D000002C02DA30BC002070474FF400000023ED
:1002E000914201D3891A034340084FEA4101F7D1F3
:1002F00051B1914202D14FF0004105E002D24FF0DE
:10030000010101E06FF0010103EBC450284430BC4F
:1003100000F087B92DE9FE4F81EA030404F00044A0
:1003200021F0004100944FF0000B23F0004350EA0D
:1003300001045ED052EA03045BD0C3F30A54C1F354
:100340000A552C44A4F2F3340194A0FB0254C1F3E7
:10035000130141F48011C3F3130343F4801301FB31
:10036000024400FB034E840A970A44EA815447EA98
:100370008357A4FB076802958D0A05FB07854FEAA2
:10038000932C04FB0C542705029D4FEA065847EABC
:100390001637B5EB08056EEB070C870E920E47EA91
:1003A000811742EA8312A7FB0201B6EB0B0164EB53
:1003B00000042B0D43EA0C335E1844EB1C50DA4664
:1003C0005146E7FB0201C5F313044FEA0B3343EA3E
:1003D00014534FEA0432019C43EA0603A4F10C04CF
:1003E0000294009CCDE900B400F061F903B0BDE8CF
:1003F000F08F00200146F9E72DE9F04D81EA030472
:1004000004F0004B21F0004514464FF0000A23F0A1
:10041000004150EA050220D054EA01021DD0C5F384
:100420000A570246C5F31303C1F31300C1F30A567A
:1004300040F4801543F48013A7EB0608101BD64642
:1004400008F2FD3873EB050002D308F1010801E062
:1004500092185B41B8F1000F03DA00200146BDE8B5
:10046000F08D00204FF48011064684460EE0171BE5
:1004700073EB050705D3121B63EB050306434CEA38
:10048000010C49084FEA300092185B4150EA01071D
:10049000EDD152EA030012D082EA040083EA05019A
:1004A000084305D0101BAB4106D20122002306E011
:1004B00000224FF0004302E06FF0010253101AEBEC
:1004C00006004CEB085110EB0A0041EB0B01BDE8B4
:1004D000F04D00F0DDB896230022114600F0AAB8D6
:1004E0000EB540F2334102910021CDE900110A46D8
:1004F0000B4600F0DCF803B000BD20F00040C10D59
:10050000C0F3160040F400007F2901DA0020704794
:10051000962903DCC1F19601C8407047963988409E
:10052000704700F0004230F000400AD0C10D01F5E4
:100530006071C0F3160042EA0151C208400711433E
:10054000704700200146704701F0004330B421F0AD
:10055000004150EA010206D00A0DA2F56072C1F313
:100560001301002A02DC30BC00207047440F44EA2B
:10057000C104C100E01830BC00EBC25000F051B81B
:10058000002801DBC0F10040002901DBC1F100417E
:100590008142704730B50B460146002020220124DD
:1005A00009E021FA02F59D4205D303FA02F5491B41
:1005B00004FA02F52844151EA2F10102F1DC30BD57
:1005C0002DE9F05F0546002092469B468846064688
:1005D000814640241BE0284641464746224600F01B
:1005E000ACF953465A46C01A914110D311461846E9
:1005F000224600F093F92D1A67EB01084F46224678
:100600000120002100F08AF917EB00094E41201E5D
:10061000A4F10104DFDC484631462A464346BDE8E2
:10062000F09F0029A8BF7047401C490008BF20F078
:100630000100704710B4B0FA80FC00FA0CF050EAE8
:10064000010404BF10BC704749B1CCF1200421FA69
:1006500004F411FA0CF118BF012121430843A3EB64
:100660000C01CB1D4FEA00614FEA102042BF002071
:1006700010BC704700EBC35010440029A4BF10BC4D
:100680007047401C490008BF20F0010010BC7047B3
:1006900010B5141E73F1000408DA401C41F100018A
:1006A00092185B411A4301D120F0010010BD2DE9E1
:1006B000F04D92469B4611B1B1FA81F202E0B0FAD8
:1006C00080F22032904600F029F904460F4640EAB5
:1006D0000A0041EA0B0153465A46084313D011461B
:1006E00053EA010019D0C8F14002504600F025F944
:1006F00005460E4650465946424600F00FF908435B
:1007000005D0012004E020463946BDE8F08D0020E8
:10071000054346EAE0762C4337430A986305E40A2A
:10072000A0EB08000022FD0A44EA47540A3002D533
:1007300000200146E9E7010510196941DDE9084596
:1007400000196941BDE8F04DA2E72DE9FE4F804652
:1007500081EA0300C00F0C46009021F0004123F015
:100760000045B8EB0200A94105D24046214690461B
:100770001C460B46024623F00040104347D0270D8D
:10078000C7F30A00C3F30A510290401A01904028AF
:100790006BDAC3F3130040F4801B0098924620B13B
:1007A0000023D2EB030A63EB0B0B01985946C0F10F
:1007B0004002504600F0B2F806460D4650465946F3
:1007C000019A00F0CAF810EB08006141002487EAA2
:1007D000115284EAE7731A4340D0009A62B3019A37
:1007E000012A4FEA075215DC001B61EB02014FF0B2
:1007F000004202EA0752CDE90042001C41F5801197
:1008000032462B46FFF753FF03B0BDE8F08F40465A
:100810002146F9E7001B61EB0201001C41F5801342
:1008200000185B412018A2F5001747EB030140EACE
:10083000D570B6196D4111E06D084FEA360645EAEC
:10084000C0754FEA0752001B61EB0201001C41F525
:10085000801149084FEA30000019514132462B46B9
:1008600003B0BDE8F04FFFF713BF0098012240002E
:100870000023D0EB020263EBE073009821464FEABD
:10088000E074B8EB000061EB0401E9E783F000439A
:100890005BE781F0004158E7C1F30A52C1F313014D
:1008A00040F2FF3341F480119A4202DA00200146FF
:1008B000704740F233439A42A2F2334202DC524282
:1008C00000F03BB800F02AB830B5041E71F1000406
:1008D00004DB4FF00044404264EB0101141E73F14D
:1008E000000405DB1C464FF00043524263EB040357
:1008F000994208BF904230BD064C074D06E0E068C3
:1009000040F0010394E8070098471034AC42F6D356
:10091000FFF712FC4452010864520108202A04DB4C
:10092000203A00FA02F1002070479140C2F1200302
:1009300020FA03F3194390407047202A04DB203A41
:1009400021FA02F00021704721FA02F3D040C2F1EF
:1009500020029140084319467047202A06DBCB1736
:10096000203A41FA02F043EAE07306E041FA02F36A
:10097000D040C2F12002914008431946704770B53B
:100980008C1810F8015B15F0070301D110F8013B3A
:100990002A1106D110F8012B03E010F8016B01F8C1
:1009A000016B5B1EF9D12B0705D40023521E0DD419
:1009B00001F8013BFAE710F8013BCB1A921C03E067
:1009C00013F8015B01F8015B521EF9D5A142D8D39F
:1009D000002070BD21B1826842F00102826003E014
:1009E000826822F0010282607047000010B5044660
:1009F0001248844208D10121401504F031FD002144
:100A0000601504F02DFD17E00D48844208D1012146
:100A1000001504F025FD0021201504F021FD0BE058
:100A20000848844208D10121C80304F019FD0021BF
:100A30004FF4004004F014FD10BD000000240140FC
:100A400000280140003C0140014600208A6802F075
:100A500004020AB1012000E0002070470146C86C82
:100A600080B270470246002013680B400BB1012092
:100A700000E000207047014600208A6802F008026A
:100A80000AB1012000E000207047000030B50246A6
:100A90000020002350680F4C20400D790C6844EA78
:100AA00005242043506090680B4C2040D1E902544B
:100AB0002C434D7944EA450420439060D06A20F4E9
:100AC00070000C7C641EE4B2234340EA0350D06201
:100AD00030BD0000FFFEF0FFFDF7F1FFF0B504466A
:100AE0000D4600200021092D11DDE068A5F10A0660
:100AF00006EB4607072606FA07F18843A5F10A0622
:100B000006EB460603FA06F10843E0600CE02069B4
:100B100005EB4507072606FA07F1884305EB45066E
:100B200003FA06F108432061072A0FDA606B561EAC
:100B300006EB86071F2606FA07F18843561E06EBCA
:100B4000860605FA06F10843606322E00D2A0FDAF3
:100B5000206BD61F06EB86071F2606FA07F188438F
:100B6000D61F06EB860605FA06F10843206310E05F
:100B7000E06AA2F10D0606EB86071F2606FA07F1CA
:100B80008843A2F10D0606EB860605FA06F1084336
:100B9000E062F0BD816841F008018160704721B1D9
:100BA000826842F4A002826003E0826822F4A0021C
:100BB00082607047816841F00401816070470000E5
:100BC00010B503F0FDF903F0B5FA03F05FFA012068
:100BD0000A49087002E00AA003F0D8FC0748007830
:100BE0000028F8D10D49087005200D490870084605
:100BF000007807F03DF806F037FA10BDD701002065
:100C0000303A2F4F54484552532F416C61726D4D0D
:100C1000757369632E6D70330000000000000020C2
:100C20000100002010B5012004F02AFC002004F08F
:100C300027FC10BD08B50146002000900348009035
:100C40000098084400900098008808BD006C00409F
:100C500008B500220092044A0092009A02440092D1
:100C6000009A116008BD0000006C004000BFFEE764
:100C700010B50246012000E050430B1EA1F1010413
:100C8000E1B2F9D110BD00002DE9F04705460E464E
:100C900017469846DDE9089A002340F2B270854273
:100CA00003DB40F63300854202DD0120BDE8F0871A
:100CB00040F2B2740AE0204603F09EF810B11948E1
:100CC000034401E018480344601C84B2AC42F2DBE8
:100CD000701EC6B2002410E01448005D40F2A3214B
:100CE000484303EBC013284603F086F818B1012CE3
:100CF00001D10F480344601C84B2B442ECDB781E7F
:100D000040F2A321484303EBC013C8EB4810C0EBEB
:100D1000082003EB0013C9EB091003EB80035344D5
:100D20001846C3E70085E2018033E1016024010831
:100D30008051010001461848007850BB17480078E0
:100D400001280CD10A2903D00020134A107020E09A
:100D50000120114A10700020104A107019E00D296E
:100D600003D101200D4A107013E00D480D4AB2F96D
:100D7000002081540B480088401C00B2094A1080B2
:100D80001046B0F90000B0F5FA6F02DB0020034A0C
:100D90001070014800787047A6000020A7000020CE
:100DA0000CC30020A40000200022002100200D4BD5
:100DB000186015E00C48006868B1501C82B200E071
:100DC000491C0A488142FBD1642A09DB0020054BFB
:100DD0001860012070470120024B18600020F9E7DD
:100DE000E8E700009481214200012142001BB70086
:100DF00001460020612904DB7A2902DCA1F12002EE
:100E0000D1B2302905DB392903DCA1F13002D0B29F
:100E100006E0412904DB5A2902DCA1F13702D0B2F5
:100E2000704700000020014908707047A6010020AB
:100E30000020014908707047A501002000200149E9
:100E400008707047A401002070B500254FF480346D
:100E500004E0802005F06CF900B103E0201EA4F14D
:100E60000104F6D100BF0CB9032070BD40F2FF5061
:100E700005F022F92846F8E770B5044605E0154864
:100E8000456B05F0450000B100E0F8E700BF042025
:100E900005F04EF920B1042005F00EF9032070BDD5
:100EA000012005F045F920B1012005F005F90120E8
:100EB000F5E708480069A04201D01020EFE740F2B2
:100EC000FF50044988630846406908210840C0B2C1
:100ED000E5E700000080014070B500264FF4803542
:100EE00005E01148446B04F0450000B103E0281E02
:100EF000A5F10105F5D100BF15B104F0040028B13A
:100F00000326042005F0D8F8304670BD012005F016
:100F10000FF918B10126012005F0CEF840F2FF507C
:100F200005F0CAF83046F0E70080014010B505E052
:100F30000B48446B04F0450000B100E0F8E700BF47
:100F4000042005F0F5F820B1042005F0B5F80320E1
:100F500010BD40F2FF5005F0AFF80020F8E70000A8
:100F6000008001402DE9F04105460E464FF0000893
:100F700005E01F48476B07F0450000B100E0F8E7C7
:100F800000BF042005F0D4F828B1042005F094F83F
:100F90000320BDE8F081012005F0CAF820B101204E
:100FA00005F08AF80120F4E711480069A84201D051
:100FB0001020EEE740F2FF5005F07EF80C4844693F
:100FC00004F4604018B9200C30804046E1E704F496
:100FD000005008B11320DCE704F4804008B1102071
:100FE000D7E704F4004008B10F20D2E74046D0E72D
:100FF0000080014070B500264FF4803505E00F48B1
:10100000446B04F0450000B103E0281EA5F1010582
:10101000F5D100BF15B104F0040028B10326042067
:1010200005F04AF8304670BD04F0400018B10026C3
:10103000402005F041F83046F5E70000008001400F
:1010400008B50121402004F0FBF90121402004F003
:10105000F7F90121402004F0F3F90121042004F004
:10106000EFF91020ADF8000001208DF802004820B3
:101070008DF803006946154801F0DCF80820ADF84A
:10108000000001208DF8020048208DF80300694619
:101090000E4801F0CFF80420ADF8000001208DF8D3
:1010A000020048208DF803006946084801F0C2F8A4
:1010B0000120ADF800008DF8020028208DF8030013
:1010C0006946034801F0B6F808BD00000018014069
:1010D0000008014008B50121082004F0B1F9012100
:1010E000402004F0ADF92020ADF8000003208DF879
:1010F000020010208DF8030069460D4801F09AF8AF
:10110000002220210A4801F076F92020ADF80000E5
:1011100003208DF8020010208DF803006946054871
:1011200001F088F801222021024801F064F908BD8D
:10113000000C01400018014010B5002140F6FF10DE
:1011400002F024FA10BD10B54FF4A06002F02EFF9B
:1011500010BD000008B50121102004F071F9012133
:10116000102004F06DF90121102004F069F901212B
:10117000102004F065F90121102004F061F901202C
:10118000ADF8000010208DF8030003208DF8020058
:101190006946254801F04EF80121234801F029F95C
:1011A0000220ADF8000010208DF8030003208DF818
:1011B000020069461C4801F03DF802211A4801F07E
:1011C00018F90820ADF8000010208DF80300032066
:1011D0008DF802006946144801F02CF808211248E5
:1011E00001F007F90420ADF8000010208DF803008D
:1011F00003208DF8020069460B4801F01BF804211A
:10120000094801F0F6F81020ADF800008DF8030051
:1012100003208DF802006946034801F00BF8102105
:10122000014801F0E6F808BD0010014010B50021AA
:10123000AE2003F0E9F80021D52003F0E5F8002105
:10124000502003F0E1F80021A82003F0DDF8002190
:101250003F2003F0D9F80021D32003F0D5F8002176
:10126000084603F0D1F80021402003F0CDF800211A
:101270008D2003F0C9F80021142003F0C5F80021E7
:10128000202003F0C1F80021022003F0BDF8002166
:10129000A12003F0B9F80021C02003F0B5F8002127
:1012A000DA2003F0B1F80021122003F0ADF800219C
:1012B000812003F0A9F80021EF2003F0A5F8002118
:1012C000D92003F0A1F80021F12003F09DF80021BE
:1012D000DB2003F099F80021302003F095F800217D
:1012E000A42003F091F80021A62003F08DF800213E
:1012F000AF2003F089F810BD10B504F0C7F84FF423
:10130000803004F085F904F009FA0446012C24D158
:10131000102000F043FE022000F04EFE002004F0FA
:101320006BF9002004F0C0F9A00204F0B1F94FF409
:10133000E011200404F0CAF9012004F0C1F900BF53
:10134000392004F033F90028FAD0022004F0DAF949
:1013500000BF04F049F90828FBD110BD08B50320EF
:101360008DF8000000208DF801008DF802000120AA
:101370008DF80300684602F0E1FD08BD70B58CB041
:1013800006460C4615460121022004F039F81348A0
:1013900000F0AEF90021114800F09DF910480190CD
:1013A00002960395A00804900020059080200690E6
:1013B0008000079080000890002009904FF40050B2
:1013C0000A9000200B9001A9044800F037FA002190
:1013D000024800F080F90CB070BD000044040240E7
:1013E000808001407FB505460C460121084604F087
:1013F00017F8ADF80850ADF804400020ADF80A0029
:10140000ADF8060001A94FF0804006F039FA01223C
:101410001146900706F01CF91C208DF800000120F1
:101420008DF80300684602F089FD0121880706F067
:10143000EFF87FBD7FB505460C460121042003F07F
:10144000EFFFADF80850ADF804400020ADF80A00F9
:10145000ADF8060001A90B4806F012FA0122114668
:10146000084806F0F5F81E208DF8000001208DF8E0
:101470000300684602F062FD0121024806F0C8F848
:101480007FBD0000000800407FB505460C460121E5
:10149000082003F0C5FFADF80850ADF80440002067
:1014A000ADF80A00ADF8060001A90B4806F0E8F90E
:1014B00001221146084806F0CBF832208DF80000D2
:1014C00001208DF80300684602F038FD0121024832
:1014D00006F09EF87FBD0000000C00401FB5012102
:1014E000112003F0ADFF2020ADF80C0004208DF892
:1014F0000F0003A9114800F09DFE0521022000F015
:1015000079FE2020009000208DF804000C208DF83A
:10151000050001208DF80600684600F065FA1720E6
:101520008DF8080002208DF809008DF80A000120CE
:101530008DF80B0002A802F001FD1FBD0010014054
:1015400000B587B00121042003F07AFF0121880350
:1015500003F076FF4FF40070ADF8180018208DF8F6
:101560001B0003208DF81A0006A9234800F062FE34
:101570004FF48060ADF8180004208DF81B000320A4
:101580008DF81A0006A91C4800F054FE02A806F0C7
:1015900062FB4FF4E13002900020ADF80C00ADF892
:1015A0000E00ADF810000C20ADF812000020ADF8D0
:1015B000140002A9114806F0D9FA25208DF804007C
:1015C00001208DF8070001A802F0B8FC012240F2CA
:1015D00025510A4806F0A5FA012240F22771074872
:1015E00006F09FFA0121054806F058FA0020044948
:1015F000087007B000BD000000080140003801403D
:10160000B201002000B587B00121042003F018FFCB
:101610000121480403F004FF0420ADF8180018204D
:101620008DF81B0003208DF81A0006A9224800F04F
:1016300001FE0820ADF8180004208DF81B000320DF
:101640008DF81A0006A91C4800F0F4FD02A806F067
:1016500002FB4FF4165002900020ADF80C00ADF8DC
:101660000E00ADF810000C20ADF812000020ADF80F
:10167000140002A9114806F079FA26208DF804001A
:1016800001208DF8070001A802F058FC012240F269
:1016900025510A4806F045FA012240F22771074811
:1016A00006F03FFA0121054806F0F8F90020044948
:1016B000087007B000BD0000000801400044004071
:1016C000BE0100200146002002E04910421CD0B2B9
:1016D0000129FAD1704721B1026842F0010202608B
:1016E00004E002684FF6FE731A4002607047000083
:1016F00001684FF6FE7211400160002101604160F7
:101700008160C1604B49884208D14A49083949681B
:1017100041F00F01474A083A51608AE045491431C7
:10172000884208D143490839496841F0F001414AEB
:10173000083A51607DE03F492831884208D13D494F
:101740000839496841F470613A4A083A516070E0DA
:1017500038493C31884208D136490839496841F452
:101760007041344A083A516063E03249503188424E
:1017700008D130490839496841F470212D4A083AA6
:10178000516056E02B496431884208D12949083913
:10179000496841F47001274A083A516049E02549F7
:1017A0007831884208D123490839496841F070618D
:1017B000204A083A51603CE01F49884206D1011F87
:1017C000096841F00F01021F116032E01A4914311B
:1017D000884208D11849091F096841F0F001164AEA
:1017E000121F116025E014492831884208D112499E
:1017F000091F096841F470610F4A121F116018E057
:101800000D493C31884208D10B49091F096841F450
:101810007041094A121F11600BE00749503188429C
:1018200007D10549091F096841F47021024A121FB6
:1018300011607047080002400804024010B5002201
:10184000026847F6F0739A430C6A8B6823430C696D
:1018500023434C6923438C692343CC6923434C6A5B
:1018600023438C6A23431A430260CB6843600B68AE
:1018700083604B68C36010BD70B5ADF5FB6D33E0A0
:101880009DF8D407FFF756FA01282DD101A801F0E1
:1018900053F90646002001A9885501A800F00CFF65
:1018A000054615B900F022FA1EE001A803F08AF9F6
:1018B0000446CCB1012C06D0022C08D0032C0AD04F
:1018C000042C10D10BE00DA007F05AFC0BE00EA089
:1018D00007F056FC07E00FA007F052FC03E010A051
:1018E00007F04EFC00BF00BF01210DF2D47004F0E0
:1018F0000FFB0028C4D10DF5FB6D70BDBAAFCAFD5A
:10190000B4EDCEF3210D0A00B2CECAFDB4EDCEF394
:10191000210D0A00B2CECAFDCCABB6E0210D0A0003
:10192000CEB4D5D2B5BDC6A5C5E4B5C4BAAFCAFD5F
:10193000210D0A007047000001B5044900980860B5
:1019400000BF024800680028FBD108BDEC01002060
:1019500001B5009806E0002101E04A1C91B2072978
:10196000FBDB401E0028F6D108BD10B5012000F0B9
:1019700021F8FFF719FA08B105F08CFD10BD000041
:1019800010B5202000F01CF888B109480078401CF0
:1019900007490870084600780A2801DB0020087013
:1019A0000348007805F03CF9202000F003F810BD52
:1019B00084010020014908607047000014040140C0
:1019C000014600200022074B1B6803EA0102054B79
:1019D00014331B680B4013B10AB1012000E0002052
:1019E0007047000000040140002123498279002A49
:1019F0003AD00A46126803689A430B461A600A1DD9
:101A0000126803689A430B1D1A60027911440A6830
:101A100003681A430A60184A0832126803689A4336
:101A2000154B08331A601A1D126803689A43124B4B
:101A30000C331A604279102A0ED11A1F12680368FB
:101A40001A430D4B08331A601A1D126803681A43B3
:101A5000094B0C331A600DE00749427911440A68BA
:101A600003681A430A6005E0027911440A680368B2
:101A70009A430A60704700000004014070B50446B4
:101A8000002516480078032801D1272070BD13488F
:101A9000007838B111480078012803D00F48007849
:101AA000022818D1022C01D32720EFE7E0B204F07E
:101AB000ADFA05467DB90A48406820F4C05008498F
:101AC000486008464068A1B240EAC1200449486025
:101AD0000846406848602846D8E7000028000020F3
:101AE0000080014010B5012004490870012240F235
:101AF0002771034806F015F810BD0000BE01002054
:101B0000004400402DE9F05F04464FF00009CA464A
:101B1000CB46217843A007F033FB2078302803D14F
:101B200049A007F02DFB7BE0207831281CD14AA08A
:101B300007F026FBA07830386178303901EB81015D
:101B400000EB41001FFA80F920793038E178303914
:101B500001EB810100EB41001FFA80FA5246494631
:101B600041A007F00DFB5BE0207832282DD141A089
:101B700007F006FB607830384FF47A714843A1785B
:101B8000303901EBC10202EB011100EB8101E07879
:101B9000303800EB800001EB4001207930380844F8
:101BA0001FFA80F9494637A007F0EAFA4846FEF7DF
:101BB00097FC07460022374BFEF71EFC05462A46D7
:101BC0000B4635A007F0DCFA2AE02078332824D130
:101BD00035A007F0D5FAA078FFF70AF90546607836
:101BE000FFF706F905EB00192079FFF701F9054623
:101BF000E078FFF7FDF805EB001AA079FFF7F8F899
:101C000005466079FFF7F4F805EB001B5B4652468A
:101C100049462AA007F0B4FA02E030A007F0B0FA73
:101C2000BDE8F09F5468652066697273742063682C
:101C30006172206F6620436F6465206973202725D9
:101C400063270D0A00000000436C6F736520416C30
:101C500061726D0D0A0000004F70656E20416C616D
:101C6000726D0D0A000000005365742025643A254A
:101C7000640D0A004D6F64756C61746520464D0DEE
:101C80000A000000726573756C74203A2025640D9B
:101C90000A0000000000244053657420464D3A209D
:101CA00025302E31660D0A004465616C2077697419
:101CB00068204C616D700D0A000000007265643A86
:101CC0002025642C20677265656E3A2025642C20DF
:101CD000626C75653A2025640D0A00004572726FCA
:101CE0007220436F6465210D0A0000002DE9F04168
:101CF0009AB000278C4804788C480078844202DB34
:101D00001AB0BDE8F0818A4901EBC40106AB07AA0D
:101D1000486808A900F02CFD08A986A007F030FA51
:101D2000002642E00120B040844909880840D0B133
:101D3000222183A007F024FA304600F025FE8149D5
:101D400000EB0108414680A007F01AFA22217CA08E
:101D500007F016FA304600F017FE7A49084410A939
:101D600041F8260017E0304600F00EFE754908588D
:101D700010A941F826007548007830B910A850F82D
:101D8000261073A007F0FCF905E010A850F8261003
:101D900070A007F0F5F99DF81C00401EB04202D07B
:101DA0006EA007F0EDF9701CC6B29DF81C008642CB
:101DB000B8DB6BA007F0E4F904F016F96948007885
:101DC0000B280CD2DFE800F0060C131B242D38453D
:101DD00054657800564951F834008047054680E044
:101DE000534A52F8341010988847054679E0504B12
:101DF00053F83420DDE910019047054671E0DFF823
:101E000030C15CF8343010A807C89847054668E030
:101E1000DFF81C8158F834C010A80FC8E047054609
:101E20005FE014980090DFF8088158F834C010A8DB
:101E30000FC8E047054654E0DDE91401CDE9000193
:101E4000DFF8EC8058F834C010A80FC8E04705460A
:101E500047E0DDE914121698CDE900120290DFF890
:101E6000D08058F834C010A80FC8E047054638E0C5
:101E7000DDE91423DDE91610CDE90023CDE90210D8
:101E8000DFF8AC8058F834C010A80FC8E04705460A
:101E900027E0DDE91523DDE91701CDE90123CDE9CF
:101EA000030114980090DFF8888058F834C010A817
:101EB0000FC8E047054614E0DDE91623DDE91810F8
:101EC000CDE90223CDE90410DDE91401CDE90001DB
:101ED000DFF85C8058F834C010A80FC8E04705460A
:101EE00000BF00BF00F0D8FB07469DF8180001288E
:101EF0000CD11648007820B929461BA007F040F9FC
:101F000007E029461AA007F03BF902E017A007F006
:101F100037F91A48007828B107EB8700410018A06C
:101F200007F02EF900BFEBE6C6000020C400002039
:101F3000CC0000200D0A257328000000CA000020F4
:101F400025630000DCCA002025730000C7000020C4
:101F5000256C750030582558000000002C0000004A
:101F600029000000C50000203D256C753B0D0A00CE
:101F70003D305825583B0D0A00000000C8000020E5
:101F800046756E6374696F6E2052756E2054696D6C
:101F9000653A256475730D0A00000000054909685B
:101FA00021F01001034A11601146096801431160D4
:101FB000704700000020024001460020034A1068DC
:101FC00000F0380008431060704700000020024015
:101FD0002DE9FC4107460D46002600240020009014
:101FE000019008205B49086010204860402088600C
:101FF0000020C8604FF480600861084604F0CEF805
:102000001020FEF739FF044614B12046BDE8FC81DC
:102010005148008800044F4908603720486040203C
:1020200088600020C8604FF480600861084604F0B2
:10203000B5F83720FEF720FF04460CB12046E5E74F
:102040004FF0FF3045490860082048603020886024
:102050000220C8600020086101204861084604F0A1
:102060003DF800203B4908603320486040208860EC
:102070000020C8604FF480600861084604F08EF8C4
:102080003320FEF7F9FE04460CB12046BEE70CE013
:102090004FF4001004F04CF838B104F079F84DF822
:1020A0002600761C022E00D306E02D48406B40F23D
:1020B0002A6108400028EBD000BF082004F038F85F
:1020C00020B1082003F0F8FF04209FE7022004F06D
:1020D0002FF820B1022003F0EFFF022096E7202026
:1020E00004F026F820B1202003F0E6FF06208DE75B
:1020F0004FF4007004F01CF828B14FF4007003F0A6
:10210000DBFF072082E740F2FF5003F0D5FF009885
:102110000006009901F47F4140EA0120009901F492
:102120007F0140EA1120009940EA1160686001983F
:102130000006019901F47F4140EA0120019901F470
:102140007F0140EA1120019940EA11602860204691
:102150005CE7000020AC00202C00002034AC002004
:102160000080014070B505460C4604B970BD0548B5
:1021700050F82500261A3146284600F005F800BF21
:10218000F4E70000140000202DE9F04104460E465B
:102190001548005D38B9144818380168204688474A
:1021A0000120BDE8F081114850F82400B04219D94F
:1021B0000F4850F82400B6FBF0F10B48083850F8EF
:1021C000240030F81120002508E0002306480838D4
:1021D00050F824004F1920F817306D1C9542F4DB9D
:1021E0000020DEE70220DCE72400002080DD00087C
:1021F00078DD000830B500228B071C0F0F2303FA8F
:1022000004F20B4B8C1053F824309343084C8D1080
:1022100044F8253023468C1053F824308C07240FC3
:1022200000FA04F42343024C8D1044F8253030BDED
:10223000080001402DE9F04102460025002600205B
:1022400000230024002791F803C00CF00F0591F83B
:1022500003C00CF0100CBCF1000F03D091F802C0C9
:102260004CEA050591F800C0BCF1000F31D01468AC
:1022700000202BE04FF0010C0CFA00F3B1F800C085
:102280000CEA03069E4220D183004FF00F0C0CFA9B
:1022900003F7BC4305FA03FC4CEA040491F803C0BD
:1022A000BCF1280F06D14FF0010C0CFA00FCC2F86B
:1022B00014C00AE091F803C0BCF1480F05D14FF0FB
:1022C000010C0CFA00FCC2F810C0401C0828D1D345
:1022D0001460B1F800C0BCF1FF0F34DD5468002079
:1022E0002EE000F1080C4FF0010808FA0CF3B1F8E9
:1022F00000C00CEA03069E4221D183004FF00F0C70
:102300000CFA03F7BC4305FA03FC4CEA040491F809
:1023100003C0BCF1280F05D100F1080C08FA0CF835
:10232000C2F8148091F803C0BCF1480F07D100F146
:10233000080C4FF0010808FA0CF8C2F81080401C95
:102340000828CED35460BDE8F0810000F0B50A46FD
:10235000002300240021002500F00046B6F1004FC4
:1023600002D11D4EF16901E01B4E7168C0F30345B7
:1023700083B200F44016B6F5401F08D121F0706119
:10238000154E766826F07066134F7E6012E000F4FA
:102390008016B6F5801F06D1032606FA05F4A14380
:1023A00041F0706106E0460D360103FA06F6B143CE
:1023B00041F0706122B1460D360103FA06F6314351
:1023C00000F00046B6F1004F02D1034EF16101E08A
:1023D000014E7160F0BD0000000001400246002087
:1023E00093680B400BB1012000E000207047416171
:1023F0007047016170470AB1016100E041617047B7
:102400000148007870470000A601002001480078CC
:1024100070470000A50100200148007870470000C7
:10242000A401002010B50723012211460848FEF739
:1024300055FB01210648FEF7B2FB00BF022104480C
:10244000FEF710FB0028F9D00148FEF707FB10BD8E
:102450000024014070B504460025002607E0FFF780
:10246000E1FF05440520FFF767FA701CC6B2A642DB
:10247000F5DBB5FBF4F080B270BDF0B50346154650
:10248000002000220026002455E01F782C2F01D1C7
:1024900004B901221F78292F01D01F780FB904B980
:1024A0004AE0002E34D11F78302F02DB1F78392FFD
:1024B00011DD1F78612F02DB1F78662F0BDD1F787F
:1024C000412F02DB1F78462F05DD1F78582F02D0E1
:1024D0001F78782F0CD102B12EE01F78612F03DB1B
:1024E0001F78203F0F7001E01F780F70491C1FE01C
:1024F0001F78222F04D102B11EE00126012417E02B
:102500001F78202F14D01F782C2F11D0FF2613E016
:102510001F78222F00D1002402B10DE044B11F78B2
:102520005C2F02D15B1C471CF8B21F780F70491C4E
:10253000471CF8B25B1CA8E700BF00270F702E8075
:10254000F0BD00002DE9F047B6B0054688460024EE
:10255000002604E0002040498855701CC6B20A2EAF
:10256000F8DB06E06D1C287818B9012036B0BDE80C
:10257000F08728782828F5D16D1C67E035AA01A9D5
:102580002846FFF77AFF06463544BDF8D40020B14F
:1025900001282AD0FF2852D14FE09DF8040018B33B
:1025A00034A901A804F0E9FE07460FB10220DDE7D7
:1025B000204600F0E9F92949349A0A5000F0F4F96C
:1025C00035900120A040BDF8D41081433591BDF86D
:1025D000D40004F0D3FB04201F490855601CC4B28A
:1025E0000A2C01DD0320C1E729E001A804F046FF21
:1025F000401C00F0FF09204600F0C6F9174900EB27
:10260000010A514601A804F02EFF00F0CDF93590E3
:102610000120A040BDF8D410084380B23590BDF829
:10262000D40004F0ABFB0C4800F80490601CC4B26A
:102630000A2C01DD032099E701E0022096E700BFA4
:102640002878292801D0287800B900E096E700BF53
:1026500088F80040002089E7A4CB0020DCCA0020D5
:1026600010B50446002010700BE020780870641C40
:10267000491C1078401C10701078984201DB012032
:1026800010BD2078202802D020780028EDD100202D
:10269000087000BFF4E7000010B5054804F0C4FF5F
:1026A000044909680844034908600846006810BDE9
:1026B00000080040A801002030B595B0054613ABD6
:1026C00012AA0AA9284600F053F8044614B120467D
:1026D00015B030BD0020149025E021499DF8502010
:1026E00001EBC20113AB09AA486801A900F040F848
:1026F00004460CB12046EBE70AA901A804F0A2FEAB
:1027000060B99DF824009DF84810884201DD022040
:10271000DEE79DF85000134908700AE09DF850006C
:10272000401CC0B214909DF850000F4909788842AF
:10273000D3DB00BF9DF850000B490978884201D1D6
:102740000420C5E714A92846FFF7FCFE04460CB197
:102750002046BDE79DF85000044908700020B7E707
:10276000CC000020C6000020C4000020C5000020CE
:102770002DE9FF4F85B08046894600270020049050
:102780000390012002904FF0000B002544461DE00D
:102790002078202816D005F07F00052812DA0DB920
:1027A00045F0800505F07F00042803D120782A2811
:1027B00000D00EE0207805F07F010DF80100681CC4
:1027C000C5B202E0852D00D103E0641C207800280A
:1027D000DED100BF8DB1002005F07F010DF80100B2
:1027E00051A1684604F02EFE18B900210898017026
:1027F00002E001210898017000254FF0000A4446CC
:1028000014E0641C0AF1010000F0FF0A207820287F
:1028100002D020782A2809D1204600F0A9F80646DF
:10282000282E03D02A2E01D0CDF810A020782828F9
:1028300002D020780028E4D14446049810B10498CE
:10284000401C04444FF0000A002654E0207810B9E0
:102850004FF0010A50E02078282803D116B9781CDF
:10286000C7B213E02078292808D13EB917B1781EE5
:10287000C7B201E04FF0010A47B93DE020782228B5
:1028800004D10EB9012000E00020064647B92078A7
:1028900020282FD0207889F8000009F1010929E0CB
:1028A00020782C2804D101200290681CC5B214E0C5
:1028B0002078202811D0207828280ED04DB9BBF1DF
:1028C000050F06DA20780DF80B000BF1010000F07F
:1028D000FF0B0298401CC0B20290012F0AD102984F
:1028E000022807D10298401CC0B202900398401CF5
:1028F000C0B20390641CA9E700BF0398012809D166
:1029000000200DF80B0008A1684604F09BFD08B9F3
:1029100000200390079903980870002089F80000B0
:10292000504609B0BDE8F08F766F69640000000082
:1029300010B501460023002207E00B4850F82100A3
:1029400030F8120000B15B1C521C084850F82100FE
:102950009042F2D864205843044C54F82140B0FB14
:10296000F4F0C0B210BD00001C00002070DD0008B3
:102970000146491C00E0491C0878202802D108784B
:102980000028F8D10878704702460020002105E0B1
:10299000044B5B5C0344D8B24B1CD9B29142F7DBC9
:1029A00070470000A4CB0020014800887047000059
:1029B000CA00002070B50026002400253B48068888
:1029C0003604001D008806443948B6FBF0F4394847
:1029D0000088A0423CD037490C8040F2B27510E02C
:1029E000284601F009FA40B1B4F5B77F02D3A4F547
:1029F000B77404E0681C85B206E0A4F26D14681C8C
:102A000085B2B4F5B67FEBD800BF2B488580002592
:102A100016E02949888801F0EFF930B1012D04D181
:102A20001D2C01D31D3C09E00CE02448405DA04270
:102A300003D82248405D241A00E003E0681C85B2F8
:102A40001C2CE6D200BF681C1B498871601CC87131
:102A50001748B6FBF0F100FB11644FF46160B4FB62
:102A6000F0F0154908704FF46160B4FBF0F100FB21
:102A700011403C21B0FBF1F00F4948704FF4616008
:102A8000B4FBF0F100FB11403C21B0FBF1F201FB83
:102A90001200094988700B46DA799979988800F014
:102AA0000FF805490872002070BD0000182800408A
:102AB00080510100BC0100209ED00020602401084C
:102AC000F0B503460C461546642093FBF0F0C6B201
:102AD000642093FBF0F700FB1730C1B2132E02DD28
:102AE00001F16400C1B20846CF1701EB977701EB03
:102AF000A707BAB2072092FBF0F700FB172082B2BB
:102B00005719601EDFF82CC01CF80000384482B250
:102B1000CF1701EB9777BF10A1EB87071FB9032CE5
:102B200001DA501E82B2072092FBF0F700FB17205B
:102B3000C0B2F0BD6C24010810B50246084BB3F9D1
:102B40000000002104E0074B5B5C53544B1C19B29E
:102B50008142F8DB0023024C2380034C237010BD1C
:102B6000A40000200CC30020A6000020F0B5014600
:102B700000200022BE4B1B7881F85630BD4B1B88CD
:102B8000A1F85430BC4B1B681A0E93090B70C2F3AA
:102B900083034B7002F003038B70B74B1B68C3F3C6
:102BA0000742CA70B44B1B88C3F307220A71B24BA9
:102BB0001A784A715B681A0E1301CB80AE4B5B68C2
:102BC000C3F30742CB8843EA1213CB8002F00F0312
:102BD0000B72A94B9B88C3F30722D3094B72C2F334
:102BE00080138B72C2F34013CB72C2F300130B73CA
:102BF00000234B739E4B1B783BB19D4B1B78012BE5
:102C000003D09B4B1B78032B4FD193071B0D0B61FC
:102C1000994B1A790B6943EA82030B61964B9B68C7
:102C20001A0E0B6943EA92130B61C2F3C2030B75D0
:102C300002F007034B75904B9B68C3F3074253099F
:102C40008B75C2F38203CB7593075B0F0B768A4BB0
:102C50001B89C3F307220B7E43EAD2130B760B6961
:102C60005B1C0024C1E912340B7E9B1C012404FA76
:102C700003F3DC17D1E91256A5FB037C06FB03C363
:102C800005FB0433C1E912730C7A0123A3400B65E1
:102C90000024D1E912650B6DA6FB037C05FB03C381
:102CA00006FB0433C1E912732EE0714B1B78022B33
:102CB0002AD1714B1A7993069B0A0B616E4B9B6864
:102CC0001A0E0B6943EA02230B616B4B9B68C3F33B
:102CD00007420B6913430B61674B1B89C3F3072240
:102CE0000B695B1C4FF40074A3FB04464FF4806334
:102CF0000025A4FB037C06FB03C304FB0533C1E9E9
:102D000012734FF400730B65C2F3801301F8193F7F
:102D100093065B0E4B70584B1A7A4B7843EAD213EA
:102D20004B7002F07F038B70534BDB681A0ED30994
:102D3000CB70C2F341130B71C2F382034B71930743
:102D40001B0F8B714C4BDB68C3F307428B7943EA53
:102D500092138B71C2F34013CB7100230B7202F0FC
:102D600001034B72444B9B89C3F30722D3098B7237
:102D7000C2F38013CB72C2F340130B73C2F3001380
:102D80004B73C2F381038B7302F00303CB733A4B93
:102D90001A7B53080B7401234B74384B1B681A0EB3
:102DA000CA741939354B1B68C3F307421402CC852A
:102DB000324B1B88C3F30722CB8D1343CB852F4B9C
:102DC0001A7814060C635B681A0E0B6B43EA024414
:102DD0000C632A4B5B68C3F307420B6B43EA022484
:102DE0000C63264B9B88C3F307220B6B13430B63C7
:102DF000224B1A7934235A54204B9B681A0E3523E0
:102E00005A541E4B9B68C3F3074214068C631B4B3A
:102E10001B89C3F307228B6B43EA02448C63174B75
:102E20001A7A8B6B43EA02248C63144BDB681A0E0C
:102E30008B6B13438B63114BDB68C3F307423C235B
:102E40005B5C43EA12143C235C5413071C0DCC87D3
:102E50000A4B9B89C3F30722CB8F1343CB87074BC6
:102E60001A7B540840235C54012441235C54F0BD78
:102E7000280000202C0000204CAE00205CAE00207A
:102E80002DE9F05F82460F4614462046E21704EB18
:102E90005272D2102146E31704EB5373DB10A4EBFC
:102EA000C3030BB1012300E000231A44624302F084
:102EB000FF099AF800600AF1010082460578812E28
:102EC00005DB402D03DBFF2D01D0FF2E0DD14FF090
:102ED000000B06E0002007F8010B0BF1010000F0E9
:102EE000FF0BCB45F6DBBDE8F09F7F2D03DAA5F1A4
:102EF0004000C5B202E0A5F14100C5B2A6F18100D3
:102F0000C6B2BE2000FB065000FB09F80C2C04D012
:102F1000102C0CD0182C1ED113E01048D0F809004A
:102F200000EB08014A46384605F0C2FA13E00B48A8
:102F3000D0F8110000EB08014A46384605F0B8FA0F
:102F400009E00648D0F8190000EB08014A46384667
:102F500005F0AEFA00BF00BF00BFC4E7AECB002053
:102F600000BFFEE772B6704762B6704700B587B023
:102F70000121480202F064FA0121042002F060FA03
:102F80004FF4004002F030FA0220ADF804000020B7
:102F90008DF8070001A91848FFF74CF91748FDF70D
:102FA00025FD002002908DF80C008DF80D004FF4E7
:102FB000602004900020059001208DF8180002A9DF
:102FC0000E48FDF763FD01210C48FDF703FD0B489A
:102FD000FDF7E0FD00BF0948FDF74DFD0028FAD1DF
:102FE0000648FDF7E7FD00BF0448FDF72DFD00286A
:102FF000FAD107B000BD00000008014000240140E4
:1030000008B50121102002F01BFA0121102002F066
:1030100017FA4020ADF8000003208DF802001020C0
:103020008DF8030069460D48FFF704F98020ADF8DC
:10303000000003208DF8020010208DF8030069467F
:103040000648FFF7F7F8002240210448FFF7D3F9BC
:10305000002280210148FFF7CEF908BD0010014091
:10306000002004E00021064A1154411C08B2B0F5CA
:10307000FA6FF7DB0021034A1180034A1170704791
:103080000CC30020A4000020A600002010B50120E1
:103090000349087017200349087000F0D1FA10BDE9
:1030A000C7000020C40000207047000010B50024B5
:1030B0000EE04FF40C71002000F0BCFE184941F8FE
:1030C0002400084650F8240000B903E0601CC4B294
:1030D000022CEEDB00BF4FF40A71002000F0AAFEC4
:1030E000104908604FF40A71002000F0A3FE0E4959
:1030F00008604FF40071002000F09CFE0B4908604E
:10310000022C0AD10748006838B10748006820B18E
:103110000846006808B1002010BD0120FCE700004F
:10312000440000204C0000205000002054000020EB
:1031300010B547A006F024F84CA006F021F8544939
:103140000122086853A108F0A1F853490870084605
:1031500000780D2825D151A006F012F84FF48052C6
:1031600001214CA007F06EFD4B490870084600781D
:1031700090B959A006F004F8012246A1002008F0F9
:1031800085F84549087042490122086841A108F0C4
:103190007DF84149087014E056A005F0F1FF00BF2A
:1031A000FEE73D48007848B13B48017855A005F05E
:1031B000E7FF5CA005F0E4FF00BFFEE761A005F0BB
:1031C000DFFF68A005F0DCFF3149012248686EA1ED
:1031D00008F05CF830490870084600780D2825D1C1
:1031E0006AA005F0CDFF4FF48052012166A007F0E0
:1031F00029FD294908700846007890B972A005F0A9
:10320000BFFF012260A1002008F040F822490870A9
:103210001F49012248685CA108F038F81E4908706F
:1032200014E034A005F0ACFF00BFFEE71A480078B8
:1032300048B1194801786CA005F0A2FF73A005F011
:103240009FFF00BFFEE779A005F09AFF10BD0000C8
:103250003E3E3E546869732069732046617446732C
:103260002074657374206C61620D0A004E6F7720C4
:10327000737461727420746F206D6F756E74205357
:10328000445F46617446732E2E2E0D0A0000000026
:1032900044000020303A000058000020534463618D
:1032A000726420466174467320686173206E6F7487
:1032B000206265656E20646F6E6521204E6F7720F9
:1032C000726562756C697420534463617264204650
:1032D00061744673210D0A00496E69742053445F7E
:1032E00046617446732073756363657373212E2E74
:1032F0002E0D0A004641494C454421212E2E2E0D0B
:103300000A0000004D6F756E742053445F4661746F
:103310004673204661696C6564212E2E2825642938
:103320000D0A00004D617962652053446361726447
:1033300020496E6974206661696C6564212E2E2EA9
:103340000D0A00003E3E3E4D6F756E742053445F83
:1033500046617446732073756363657373210D0A48
:10336000000000004E6F7720737461727420746FD8
:10337000206D6F756E7420466C6173685F46617472
:1033800046732E2E2E0D0A00313A0000466C6173F2
:10339000685F466C61736820686173206E6F74208B
:1033A0006265656E20646F6E6521204E6F772072B6
:1033B0006562756C697420466C6173685F46617400
:1033C0004673210D0A000000496E697420466C6145
:1033D00073685F46617446732073756363657373C6
:1033E000212E2E2E0D0A00004D6F756E7420466C36
:1033F0006173685F4661744673204661696C6564F9
:10340000212E2E282564290D0A0000004D617962C5
:10341000652057323551787820496E69742066618D
:10342000696C6564212E2E2E0D0A00003E3E3E4D35
:103430006F756E7420466C6173685F466174467385
:103440002073756363657373210D0A0010B5002442
:1034500000F082FB0FE0601CC4B221224FF4400157
:103460000A4805F025F809480078AA2800D104E0A8
:103470001420FEF761FA0A2CEDDB00BF0348007848
:10348000AA2801D0012010BD0020FCE7AECB00200F
:1034900010B504F019F800F0DFF800F065F800F05E
:1034A000FBFA00F0E3FAFFF761FD00F025F800F009
:1034B000A9FA00F071FB00F0D3F8FFF7A1FD00F0CE
:1034C0000DF800F0E5FA00F01BF8FFF731FE00F010
:1034D0004FF804F0AFFC00F0E5FA10BD10B5FDF7B1
:1034E000AFFD00200349087048708870FF20C87045
:1034F00010BD00008501002010B5FDF7EBFD10BDEB
:1035000010B5FDF719FE0021054804F0B0F90021BF
:10351000034804F0AEF90021014804F0ACF910BDF5
:103520000004004010B504460C4951F824104A002C
:103530000B4951F82400002103F016FC094951F809
:1035400024200749083951F82400002103F00CFC1D
:10355000012103480830015510BD000070DD00084E
:103560001C00002080DD000810B5FDF7ECFD10BD4B
:1035700010B5FDF7EFFD02210348FEF73AFFFDF716
:1035800055FE00F01DFD10BD0010014030B589B0A2
:1035900005460C460121022001F042FF01210920CD
:1035A00001F04EFF01212248FEF7D0FE2320ADF8A6
:1035B000200018208DF8230003208DF8220008A990
:1035C0001C48FEF737FEADF81850ADF81440002047
:1035D000ADF81A00ADF8160005A9174804F050F927
:1035E0006020ADF804000120ADF806000020ADF821
:1035F0000C0001A9104804F035F808210E4804F029
:1036000083F801A90C4804F08DF808210A4804F059
:10361000D9F801A9084804F0DFF80821064804F0A9
:1036200019F90121044803F0F3FF09B030BD00008F
:1036300000081A00000C0140000400407047000020
:10364000002004E00021034A1154411C08B20A285A
:10365000F8DB7047A4CB002010B5FDF74DFE10BD80
:103660001CB500240420FDF7E5FA45F2500188421C
:1036700047D001214FF0C05001F0D2FE012000F0F0
:103680005DFFFDF7CFFA012001F0E8FF04E0601CC8
:10369000C4B20A20FEF750F9412001F087FF00284C
:1036A000F5D0FA2C01DB01201CBD4FF4807002F034
:1036B00021F8012002F018F802F0D2F802F0DAF84E
:1036C0000121032002F090F802F0CAF802F04AF853
:1036D00047F6FF7002F0B4F802F0C2F83220312150
:1036E00015231722CDE90010042140F2E27003F007
:1036F0004BFB02F041F845F250010420FDF7A8FA17
:1037000007E002F0B7F80121032002F06DF802F0A3
:10371000A7F8FDF723FEFFF74DF90020C4E70000EE
:103720007CB5002500240121302001F089FE012113
:1037300040F2024001F064FE4FF4F850ADF8000092
:1037400018208DF8030003208DF8020069463348E5
:10375000FEF770FD0420ADF8000018208DF803007E
:1037600003208DF8020069462D48FEF763FD802096
:10377000ADF8000048208DF8030003208DF802000A
:1037800069462748FEF756FD02F0C0FC31208DF84F
:10379000040000208DF805008DF8060001208DF84A
:1037A000070001A800F0CAFB02F022FD044614B98C
:1037B00000F02AFA04461CB91A48FFF7D7F9044664
:1037C00034B91849B1F85410080402F01BFF04463C
:1037D0001CB90120FEF752F904461CB112480078CA
:1037E000032812D10F4890F8560020B10D4890F8E8
:1037F0005600012801D10A2500E00425284603F0DF
:1038000003FB002003F0F4FA044624B107A005F0FE
:10381000B7FC00BFFEE720467CBD00000010014061
:103820000014014070AE00202800002020534420E6
:1038300063617264204572726F72210D0A0000008C
:1038400000B587B00121080301F0FAFD18208DF8BA
:103850001B0003208DF81A000121042001F0F0FD67
:103860002020ADF8180006A92648FEF7E3FC012148
:10387000042001F0E5FD4020ADF8180006A921481C
:10388000FEF7D8FC0121042001F0DAFD8020ADF81C
:10389000180006A91B48FEF7CDFC20211948FEF7A9
:1038A000A8FD40211748FEF7A4FD80211548FEF72A
:1038B000A0FD0020ADF804004FF48270ADF80600C2
:1038C0000020ADF808000220ADF80A000120ADF894
:1038D0000C004002ADF80E003820ADF810000020BA
:1038E000ADF812000720ADF8140001A9064802F057
:1038F00003FE0121044802F0E5FDFF2002F066FD11
:1039000007B000BD000801400030014000B587B09D
:103910000121880301F084FD18208DF81B0003208D
:103920008DF81A000121082001F08AFD4FF40050A3
:10393000ADF8180006A92948FEF77CFC01210820F3
:1039400001F07EFD4FF48040ADF8180006A9234831
:10395000FEF770FC0121082001F072FD4FF40040D9
:10396000ADF8180006A91D48FEF764FC4FF400519D
:103970001A48FEF73EFD4FF480411848FEF739FD26
:103980004FF400411548FEF734FD0020ADF8040067
:103990004FF48270ADF806000020ADF80800022058
:1039A000ADF80A000120ADF80C004002ADF80E00A1
:1039B0003820ADF810000020ADF812000720ADF857
:1039C000140001A9064802F097FD0121044802F005
:1039D00079FDFF2002F038FD07B000BD000C01406A
:1039E0000038004010B5FFF729FEFFF739FBFFF75D
:1039F0004DFB0020FFF796FDFFF758FBFFF754FB48
:103A000010BD000030B5164800684FF47A72B0FB64
:103A1000F2F1B1F1807F01D301201DE021F07F4060
:103A2000401E4FF0E022506150170F22002807DAA5
:103A300013071D0E0B4B00F00F04241F1D5503E050
:103A400013071C0E084B1C5400BF00204FF0E0224F
:103A5000906107201061002008B100BFFEE730BD73
:103A6000F001002018ED00E000E400E010B547216F
:103A700040F2E730FDF7B6FC40F2CF2142F20F7082
:103A8000FDF7D8FC472140F2E730FDF7FDFC10BD03
:103A900010B5FDF723FD10BD10B500F01DF8FDF7C2
:103AA0004FFD10BD10B500F003F8FDF7ABFD10BDE4
:103AB0000020074981F8660081F8640081F86500FC
:103AC000044981F8660081F8640081F86500704758
:103AD000A8D000200FD100200020074981F86600FF
:103AE00081F8640081F86500044981F8660081F876
:103AF000640081F865007047CFCF002036D00020E9
:103B00000EB501200E49887088710020487101208F
:103B10000871087048700620C87001200C2109A2A5
:103B20001823CDE90021029078220021102003F013
:103B3000C3FB00F0ABFA4FF4FA60FDF7FDFE0EBDDB
:103B4000C6010020D0A4D2E4D6D4B4F8C0EEBBD2D3
:103B5000B3F6C6B70000000008B50121082001F047
:103B60006FFC4FF48050ADF8000010208DF803007A
:103B700003208DF8020069460648FEF75BFB4FF410
:103B800080510448FEF735FCFFF7C0FE002002F02C
:103B900085FC08BD000C01401FB50121052001F086
:103BA0004FFC0120ADF80C0028208DF80F0003A970
:103BB0001448FEF73FFB00210846FEF71BFB0120DF
:103BC000009000208DF8040008208DF805000120E9
:103BD0008DF806006846FDF707FF06208DF80800FF
:103BE00002208DF809008DF80A0001208DF80B00E5
:103BF00002A800F0A3F9FDF7D7F808B903F053FCC9
:103C00001FBD00000008014038B5002401200090CD
:103C100002F09AFA08B9252038BD4A4800780428ED
:103C200021D000204849086002204860C0208860F8
:103C30000020C8604FF480600861084602F0AEFAC8
:103C4000FDF74AF904460CB12046E5E73F484069D4
:103C50003F4908603D48806948603C48C0698860C9
:103C60003A48006AC8603748007858B1354800784B
:103C7000012807D033480078062803D0314800785F
:103C8000022816D1002030490860032048604020F7
:103C900088600020C8604FF480600861084602F028
:103CA0007DFA69460320FDF75DF904460CB1204614
:103CB000B2E724480078032816D1BDF800000004BC
:103CC0002149086003204860402088600020C860C7
:103CD0004FF480600861084602F060FAFDF7FCF8D6
:103CE00004460CB1204697E716480078042827D0F0
:103CF000BDF8000017490860BDF800000004124933
:103D0000086009204860C02088600020C8604FF427
:103D100080600861084602F041FAFDF7DDF80446CC
:103D20000CB1204678E7094840690B49086007480C
:103D3000806948600548C06988600448006AC860B6
:103D4000002069E72800002020AC0020008001400E
:103D50005CAE00202C0000204CAE00201CB50446B8
:103D6000002001900090214800880004204908604C
:103D70000D204860402088600020C8604FF48060BB
:103D80000861084602F00AFA1A48406B009002E007
:103D90001848406B0090009800F045000028F7D0CC
:103DA000012002F0C5F920B1012002F085F90120BF
:103DB0001CBD042002F0BCF920B1042002F07CF903
:103DC0000320F5E70B4800690D2801D01020EFE72C
:103DD00040F2FF5002F070F90648406901900198E6
:103DE000C0F3432020700020E2E700002C000020F8
:103DF00020AC0020008001400146CA1701EB9272FE
:103E00009210A1EB820292B9642091FBF0F200FBC8
:103E1000121050B94FF4C87091FBF0F200FB121071
:103E200008B9012070470020FCE70120FAE70020D4
:103E3000F8E7000070B504460E463146204600F013
:103E40000DF80546681C08B9002070BD024850F8FE
:103E500024002844F9E70000140000202DE9F04771
:103E600004460F460025A9462348005D20B9224894
:103E700018380168204688471FB94FF0FF30BDE869
:103E8000F0871E4850F82400B7FBF0F61B4850F8A6
:103E90002400B7FBF0F100FB117000B1761C18484C
:103EA00050F82400451E22E01348083850F824003A
:103EB00030F8150010B909F1010901E04FF00009CF
:103EC000B14513D14FF0000809E00B48083850F80D
:103ED000240005EB080220F8126008F10108B04543
:103EE000F3D3064850F824006843C8E76D1E002D40
:103EF000DADA4FF0FF30C2E72400002078DD000856
:103F000070DD000800BFFEE77047000000F01F02F0
:103F100001219140024A430942F8231070470000F2
:103F200080E200E000F01F0201219140024A4309B3
:103F300042F823107047000080E200E070B50021D5
:103F400000230F22C47804B3154C246804F4E06401
:103F5000C4F5E064210AC1F10403CA40447804FABC
:103F600003F184781440214309010E4C0678A155D1
:103F7000047804F01F050124AC4005786D11AD00F4
:103F800005F1E025C5F8004109E0047804F01F05BB
:103F90000124AC40044D0678761145F8264070BDEA
:103FA0000CED00E000E400E080E100E002490143A4
:103FB000024A1160704700000000FA050CED00E0B5
:103FC00070B500240CE0002506E00020074901EB55
:103FD000C5010855681CC5B2802DF6DB601CC4B253
:103FE000082CF0DB00F052F870BD0000CFCB0020B1
:103FF0002DE9F04306460F46904699463D460CE0B3
:10400000344606E000222946204600F00BF8601CEA
:10401000C4B24445F6DD681CC5B24D45F0DDBDE8CF
:10402000F0830000F0B5144600267F2801DC3F290C
:1040300000DDF0BD0B46CF1701EB5777FF10C7F13E
:104040000707FAB2CF1701EB5777FF10A1EBC707AD
:10405000FDB2C5F107070123BB40DEB24CB10A4BEC
:1040600003EBC0039B5C3343074F07EBC007BB5414
:1040700008E0054B03EBC0039B5CB343024F07EB27
:10408000C007BB5400BFD4E7CFCB002070B50024DD
:104090001CE004F1B001C8B2002100F0B5F9002124
:1040A000084600F0B1F90021102000F0ADF900251C
:1040B00008E0084901EBC501085D012100F0A4F901
:1040C000681CC5B2802DF4DB601CC4B2082CE0DB98
:1040D00070BD0000CFCB00202DE9FF4F81B0074617
:1040E00090461D46DDE90E6A00241EE0281B401E96
:1040F000C1B20A20FCF7BCFDB8FBF0F00A21B0FB0E
:10410000F1F201FB1209B34606EBDB71491001FB2A
:104110000471C8B209F13001CAB23346CDF800A02B
:10412000029900F03FF8601CC4B2AC42DEDB05B07F
:10413000BDE8F08F2DE9F04310252E464FF03009F1
:10414000002429E01648075D4FF000081EE007F044
:10415000800028B1012231464846FFF763FF04E0A2
:10416000002231464846FFF75DFF7806070E701CB7
:10417000C6B2701B202805D12E4609F1010000F0BF
:10418000FF0906E008F1010000F0FF08B8F1080F90
:10419000DDDB00BF601CC4B2802CD3DBBDE8F08344
:1041A0008E2301082DE9F04F80460C4615461E4629
:1041B000A346A5F12000C5B200273EE00C2E07D192
:1041C00005EB45001F4901EB800010F8079004E063
:1041D0001D4800EB051010F807904FF0000A26E08C
:1041E00009F0800028B121464046099AFFF71AFFDE
:1041F00009E0099808B9012000E0002002462146A4
:104200004046FFF70FFF4FEA49604FEA1069601C14
:10421000C4B2A4EB0B00B04205D15C4608F101002A
:1042200000F0FF0806E00AF1010000F0FF0ABAF111
:10423000080FD5DB00BF781CC7B2B742BEDBBDE8B4
:10424000F08F0000CCE2000840E700082DE9FF4FA6
:1042500082460D4616461F4602952E4810F8160057
:1042600001902C4800EB460040780090019820B166
:104270004FF028084FF0100903E04FF07E084FF090
:104280001809002442E0019840B1009800EB80003A
:10429000214901EB4000005D039007E0009800EB2E
:1042A000C0001E4901EB4000005D03904FF0000B81
:1042B00026E0039800F0800028B13A46294650468F
:1042C000FFF7B0FE08E00FB9012000E00020024631
:1042D00029465046FFF7A6FE03984006000E0390BD
:1042E000681CC5B20298281A484505D1029D0AF1FA
:1042F000010000F0FF0A06E00BF1010000F0FF0BE7
:10430000BBF1080FD5DB00BF601CC4B24445BADB6B
:10431000BDE8FF8F0E2401089E2201082421010818
:104320002DE9FF4F83B0074691461E46DDE9105A3E
:1043300000200290002438E0301B401EC1B20A2049
:10434000FCF796FCB9FBF0F00A21B0FBF1F201FB9F
:1043500012080298B0B9701EA04213DDB8F1000F28
:104360000ED1AB4605EBDB71491001FB0471C8B2FD
:104370002B462022CDF800A00499FFF713FF12E08E
:1043800001200290AB4605EBDB71491001FB047183
:10439000C8B208F13001CAB22B46CDF800A004998A
:1043A000FFF700FF00BF601CC4B2B442C4DB07B01B
:1043B000BDE8F08F2DE9F84305460E4614461F462A
:1043C000DDF820801BE07A2D03DD002506F11000CA
:1043D000C6B23A2E04DDFFF7F3FD0020054606467F
:1043E000CDF8008022783B4631462846FFF7DAFEBA
:1043F000384607EBD07105EB6101CDB2641C207823
:104400000028E0D1BDE8F88370B504460D4625B913
:1044100008211948FDF7EBFF05E0012D03D1082124
:104420001548FDF7E6FF01211348FDF7E0FF0026E0
:1044300017E004211048FDF7DAFF04F0800020B1F6
:1044400010210D48FDF7D5FF03E010210A48FDF7C4
:10445000CEFF04210848FDF7CCFF6006040E701C57
:10446000C6B2082EE5DB01210348FDF7C2FF082193
:104470000148FDF7BEFF70BD001001403EB5FFF7DB
:104480009FFD01200C211CA24023CDE900210290B8
:1044900080220021084602F00FFFFFF7F7FDFFF72B
:1044A0008FFD03F061FD0446214617A004F068FE6D
:1044B00001200C2119A24023CDE900210290802285
:1044C0000021084602F0F8FEFFF7E0FD03F0A2FE2F
:1044D000FFF776FD01200C2114A24023CDE9002135
:1044E000029080220021084602F0E6FEFFF7CEFD92
:1044F00008F06CFD3EBD0000B4E6B4A2C6F7B2E21F
:10450000CAD42E2E2E00000052616D2054657374A3
:104510003A3058253034580D0A000000D5FDCFD26E
:10452000B2A8B2E2CAD42E2E2E0000003C3CD2F437
:10453000C0D6B2A5B7C5C6F73E3E00000149086225
:104540007047000000000E420A48006840F0040076
:10455000084908600846006840F002000860064804
:10456000006840F004000449086000BF00BF30BF8D
:10457000704700000070004010ED00E00149086045
:1045800070470000A0000E427047000010B50446BE
:1045900003F020FC03F0DEFEDC2006490870012059
:1045A00005490870204608F04BFE002002490870BB
:1045B00010BD00009C010020C301002010B5024680
:1045C000012000E050430B1EA1F10104E1B2F9D13A
:1045D00010BD10B5FDF714FF18B1FDF74DF9FCF74C
:1045E00021FC10BD2DE9F04B0024A146FDF70EFF84
:1045F000002877D0424800781E283BDB41480078ED
:10460000B8B94148407841490978884205D03E48C8
:1046100040783E49087002F027FD3B48C0793C498C
:104620000978884205D03848C0793949087002F0C5
:104630001BFD0020324908700A20FDF70BFF0446DD
:104640002046FBF748FF8346FBF76BFF07464FF01A
:104650006632304BFBF75EFE0546FBF775FF814681
:104660004846FBF75EFF05462A460B462AA004F0A3
:1046700087FD04E022480078401C214908702B483F
:10468000007880BB00202A4908702AA004F056F860
:10469000D0B100202849087000BF0D21274804F040
:1046A00029FD25480078401C234908704FF47A7092
:1046B000FDF742F922A004F041F81D49087018B92D
:1046C0001D4800780A28E8DD1B4800780A2802DD2A
:1046D0001CA004F055FD1648007801280BD11349A1
:1046E000087008E009E0FFE710480078012802D1CF
:1046F000504604F061F8FCF79BFBBDE8F08B00002E
:1047000007000020000000209ED0002009000020AB
:104710000800002066664A3F54686520766F6C7416
:104720002069733A2025660D0A000000020000206F
:104730000600002049490000050000205ADD00085D
:104740004F4B00004572726F720D0A0010B5FDF7F5
:1047500063FE00285ED030480078012811D1052082
:104760002E490870FCF72CFA2D4800682D490844A2
:104770002B4908600846006801F046F800202649E9
:104780000870294A2949002001F0D6FE284A294903
:10479000012001F0D1FE284A2849022001F0CCFE78
:1047A00027480078642816DB1C48007878B925482B
:1047B000007825490978884209D0234800782149A2
:1047C00008702148007803F053FA02F04DFC0020F5
:1047D0001B49087004E01A480078401C184908700A
:1047E0000E480078052801D1FFF748FE0B480078F5
:1047F000012801D102F0B2F808480078022801D15E
:1048000002F080FB05480078032801D101F07EFF0B
:10481000FCF714FB10BD0000B701002000000020D1
:10482000B8010020805101004D480008C54800082B
:1048300075480008C14900089D480008C94A000899
:1048400003000020040000200100002010B501201A
:104850000249087002A004F093FC10BD94010020EE
:104860004B455930205055534820444F574E0D0A60
:104870000000000010B501200249087002A004F0F9
:104880007FFC10BD940100204B45593120505553F9
:104890004820444F574E0D0A0000000010B501207B
:1048A0000249087002A004F06BFC10BD94010020C6
:1048B0004B455932205055534820444F574E0D0A0E
:1048C0000000000010B531480078002859D0304869
:1048D0000068B0F5966F10D92E48007800284BD0AC
:1048E0002C480078052803D101202B49087043E0AB
:1048F0002848007804283FD03EE02648007868B970
:1049000026480078062803DB01202449087033E09C
:1049100022480078401C214908702DE01D4800788D
:10492000052803D104201C49087025E019480078A7
:10493000042821D01748007806281DD01548007893
:10494000022805D10120164908701649087013E0A5
:1049500010480078012804D11149087012490870E4
:104960000AE00C480078032805D101200C490870A2
:104970000E49087000E000BF002004490870044997
:1049800008600BA004F0FCFB10BD000094010020A7
:104990009801002000000020C2010020010000203A
:1049A000CD010020CE010020D1010020D401002043
:1049B0004B45593020505553482055500D0A0000A2
:1049C00010B53448007800285FD033480068B0F54F
:1049D000966F10D931480078002851D02F480078C0
:1049E000052803D106202E49087049E02B4800789D
:1049F000042845D044E02948007820B929480078A7
:104A0000264908703CE02548007805280BD1244849
:104A10000078052803D100202149087030E00520E6
:104A20001F4908702CE01D480078042828D01B4836
:104A30000078062824D019480078022808D10120DF
:104A40001949087019480078401C1849087017E087
:104A500012480078012807D11349087014480078DB
:104A6000401C134908700BE00C480078032807D15C
:104A700001200D4908700F480078401C0D4908704E
:104A8000002004490870044908600BA004F078FB7A
:104A900010BD0000940100209801002000000020BB
:104AA000C201002001000020CD010020D001002023
:104AB000D3010020D60100204B45593120505553D9
:104AC000482055500D0A000010B5314800780028E4
:104AD00059D030480068B0F5966F10D92E4800784C
:104AE00000284BD02C480078052803D103202B49FF
:104AF000087043E02848007804283FD03EE026486C
:104B0000007868B926480078012803DC062024498B
:104B1000087033E022480078401E214908702DE0DB
:104B20001D480078052803D102201C49087025E0A3
:104B300019480078042821D01748007806281DD08D
:104B400015480078022805D1012016490870164939
:104B5000087013E010480078012804D1114908704A
:104B6000124908700AE00C480078032805D101209A
:104B70000C4908700E49087000E000BF002004498D
:104B80000870044908600BA004F0FAFA10BD000098
:104B9000940100209801002000000020C2010020A4
:104BA00001000020CD010020CF010020D201002013
:104BB000D50100204B4559322050555348205550BF
:104BC0000D0A000030B58DB005461E230CAA04A9BD
:104BD0002846FDF745FD0190019810B101200DB068
:104BE00030BD9DF83000054400200C900EE0414897
:104BF0009DF8302050F8221004A802F023FC00B9E0
:104C000008E09DF83000401CC0B20C909DF83000C8
:104C10000728ECD300BF9DF83000072865D2DFE8F5
:104C200000F004053F606766650000BF32A004F035
:104C3000A7FA32A004F0A4FA40A004F0A1FA4FA011
:104C400004F09EFA5DA004F09BFA6CA004F098FAC0
:104C50007AA004F095FA87A004F092FA8CA004F0F0
:104C60008FFA91A004F08CFA95A004F089FA9AA02A
:104C700004F086FA9FA004F083FAA5A004F080FA5D
:104C8000B1A004F07DFABEA004F07AFAC9A004F045
:104C900077FAD5A004F074FAE3A004F071FA93E275
:104CA00015A004F06DFAE3A004F06AFA00200C905D
:104CB0000DE0F0489DF8302000EBC2004168EEA006
:104CC00004F05EFA9DF83000401CC0B20C909DF8D4
:104CD0003000EB4909788842EBDB07A004F050FA7A
:104CE00072E205A004F04CFACCE16BE243E21BE275
:104CF000F2E10000A80000200D0A00002D2D2D2D4E
:104D00002D2D2D2D2D2D2D2D2D2D2D2D2D2D2D2DD3
:104D10002D2D2D2D55534D4152542056332E312DCE
:104D20002D2D2D2D2D2D2D2D2D2D2D2D2D2D2D2DB3
:104D30002D2D2D2D2D2D2D200D0A00002020202081
:104D400055534D415254CAC7D3C9414C49454E549D
:104D5000454BBFAAB7A2B5C4D2BBB8F6C1E9C7C913
:104D6000B5C4B4AEBFDAB5F7CAD4BBA5BDBBD7E9ED
:104D7000BCFE2CCDA8B9FD200D0A0000CBFC2CC434
:104D8000E3BFC9D2D4CDA8B9FDB4AEBFDAD6FACA52
:104D9000D6B5F7D3C3B3CCD0F2C0EFC3E6B5C4C821
:104DA000CEBACEBAAFCAFD2CB2A2D6B4D0D02ED2D3
:104DB000F2B4CB2CC4E3BFC90D0A0000D2D4CBE6B9
:104DC000D2E2B8FCB8C4BAAFCAFDB5C4CAE4C8EBF5
:104DD000B2CECAFD28D6A7B3D6CAFDD7D628313061
:104DE0002F3136BDF8D6C629A1A2D7D6B7FBB4AEAF
:104DF000A1A2BAAFCAFDC8EB0D0A0000BFDAB5D850
:104E0000D6B7B5C8D7F7CEAAB2CECAFD292CB5A55C
:104E1000B8F6BAAFCAFDD7EEB6E0D6A7B3D63130F2
:104E2000B8F6CAE4C8EBB2CECAFD2CB2A2D6A7B37C
:104E3000D6BAAFCAFDB7B5200D0A0000BBD8D6B5AB
:104E4000CFD4CABE2ED0C2D4F6B2CECAFDCFD4CAF9
:104E5000BEBDF8D6C6C9E8D6C3B9A6C4DC2CD0C23C
:104E6000D4F6BDF8D6C6D7AABBBBB9A6C4DC2E0DF6
:104E70000A000000BCBCCAF5D6A7B3D63A7777774C
:104E80002E6F70656E6564762E636F6D0D0A00007F
:104E900055534D415254D3D037B8F6CFB5CDB3C3E7
:104EA000FCC1EE3A0D0A00003F3A202020202020CD
:104EB000BBF1C8A1B0EFD6FAD0C5CFA20D0A000051
:104EC00068656C703A202020BBF1C8A1B0EFD6FA1B
:104ED000D0C5CFA20D0A00006C6973743A2020205F
:104EE000BFC9D3C3B5C4BAAFCAFDC1D0B1ED0D0AB5
:104EF0000A00000069643A2020202020BFC9D3C3E3
:104F0000BAAFCAFDB5C44944C1D0B1ED0D0A0A001B
:104F10006865783A20202020B2CECAFD3136BDF82F
:104F2000D6C6CFD4CABE2CBAF3B8FABFD5B8F12BC7
:104F3000CAFDD7D6BCB4D6B4D0D0BDF8D6C6D7AA91
:104F4000BBBB0D0A0A0000006465633A20202020E4
:104F5000B2CECAFD3130BDF8D6C6CFD4CABE2CBA47
:104F6000F3B8FABFD5B8F12BCAFDD7D6BCB4D6B4C6
:104F7000D0D0BDF8D6C6D7AABBBB0D0A0A00000028
:104F800072756E74696D653A312CBFAAC6F4BAAFFA
:104F9000CAFDD4CBD0D0BCC6CAB13B302CB9D8B135
:104FA000D5BAAFCAFDD4CBD0D0BCC6CAB13B0D0A6E
:104FB0000A000000C7EBB0B4D5D5B3CCD0F2B1E055
:104FC000D0B4B8F1CABDCAE4C8EBBAAFCAFDC3FBDE
:104FD000BCB0B2CECAFDB2A2D2D4BBD8B3B5BCFC71
:104FE000BDE1CAF82E0D0A002D2D2D2D2D2D2D2DB4
:104FF0002D2D2D2D2D2D2D2D2D2D2D2D2D2D2D2DE1
:105000002D2D414C49454E54454B2D2D2D2D2D2DEB
:105010002D2D2D2D2D2D2D2D2D2D2D2D2D2D2D2DC0
:105020002D2D2D200D0A0000D6B8C1EECAA7D0A79D
:105030000D0A00002D2D2D2D2D2D2D2D2D2D2D2D3D
:105040002D2D2D2D2D2D2D2D2D2D2D2D2DBAAFCAE4
:10505000FDC7E5B5A52D2D2D2D2D2D2D2D2D2D2D5E
:105060002D2D2D2D2D2D2D2D2D2D2D2D2D2D2D2D70
:10507000200D0A00CC00002025730D0A000000005E
:10508000C400002052A004F07BF800200C9018E02F
:105090005F499DF8302001EBC20102AB03AA4868CA
:1050A00004A9FDF765FB5A489DF8301050F83120EF
:1050B00004A958A004F064F89DF83000401CC0B268
:1050C0000C909DF83000584909788842E0DBAFF237
:1050D000D83004F055F877E0AFF2E43004F050F83F
:1050E0006A4604A92846FDF7C8F9BDF80000A8B92A
:1050F00001A904A802F041F9044624B94BA0019982
:1051000004F03EF80CE0042C01D0022067E54AA030
:1051100004F036F801204D49087001E002205EE5F8
:1051200044A004F02DF84FE042A004F029F86A46AC
:1051300004A92846FDF7A1F9BDF80000A8B901A906
:1051400004A802F01AF9044624B941A0019904F018
:1051500017F80CE0042C01D0022040E53FA004F039
:105160000FF800203949087001E0022037E531A02E
:1051700004F006F828E02FA004F002F86A4604A91B
:105180002846FDF77AF9BDF80000A8B901A904A8DE
:1051900002F0F3F804466CB93549019808700846E6
:1051A000007818B133A003F0EBFF07E038A003F05C
:1051B000E7FF03E0022012E5022010E51DA003F046
:1051C000DFFF01E001200AE500BF002007E5000045
:1051D0002D2D2D2D2D2D2D2D2D2D2D2D2D2D2D2DFF
:1051E0002D2D2D2D2D2D2D2D2DBAAFCAFD2049444D
:1051F000202D2D2D2D2D2D2D2D2D2D2D2D2D2D2DEC
:105200002D2D2D2D2D2D2D2D2D2D2D2D200D0A004B
:10521000CC00002025732069642069733A0D0A30A0
:1052200058253038580D0A00C40000204845583A27
:10523000305825580D0A00003136BDF8D6C6B2CE1A
:10524000CAFDCFD4CABE210D0A000000C70000204D
:105250004445433A256C750D0A0000003130BDF815
:10526000D6C6B2CECAFDCFD4CABE210D0A000000F8
:10527000C800002052756E2054696D652043616C32
:1052800063756C6174696F6E204F4E0D0A000000EB
:1052900052756E2054696D652043616C63756C6155
:1052A00074696F6E204F46460D0A000010B54948DC
:1052B000406B00F4807070B347480078012814D127
:1052C0000020464908600C2048604020886000208B
:1052D000C8604FF480600861084600F05FFF0C2052
:1052E000FBF7CAFD3E49087002E000203C49087007
:1052F0003848806B40F48070364988630846C06B3C
:105300004CF23A3188433349C8630120354908706B
:105310003348007810BDFFE7022000F009FF68B1B4
:10532000022000F0C9FE2B48C06B4CF23A31884392
:105330002849C86302202A490870EBE7082000F0DA
:10534000F7FE68B1082000F0B7FE2248C06B4CF2AF
:105350003A3188431F49C863042021490870D9E7BE
:10536000202000F0E5FE68B1202000F0A5FE1948DD
:10537000C06B4CF23A3188431649C863062018497D
:105380000870C7E7102000F0D3FE68B1102000F0CD
:1053900093FE1048C06B4CF23A3188430D49C86304
:1053A00005200F490870B5E74FF4007000F0C0FE0B
:1053B00070B14FF4007000F07FFE0648C06B4CF2F5
:1053C0003A3188430349C863072005490870A1E7BB
:1053D00000209FE7008001403100002020AC002029
:1053E000320000203300002001460020034A5068AC
:1053F00020F4404008435060704700000010024015
:1054000029B1064A52690243044B5A6104E0034A37
:1054100052698243014B5A617047000000100240FC
:1054200029B1064AD2690243044BDA6104E0034A17
:10543000D2698243014BDA617047000000100240DC
:1054400029B1064A92690243044B9A6104E0034A77
:1054500092698243014B9A6170470000001002403C
:1054600029B1064AD2680243044BDA6004E0034AD9
:10547000D2688243014BDA6070470000001002409E
:105480000149086070470000400442420F4800682C
:1054900040F001000D490860084640680C4908408A
:1054A0000A494860084600680A49084007490860F8
:1054B0000846006820F4802008600846406820F410
:1054C000FE0048604FF41F008860704700100240E3
:1054D0000000FFF8FFFFF6FE30B500210022002497
:1054E00000232D4D6D6805F00C0121B1042905D074
:1054F000082923D105E0294D056022E0274D0560EC
:105500001FE0254D6D6805F47012234D6D6805F49C
:105510008034022505EB92421CB9214D55430560AC
:105520000BE01D4D6D6805F400351DB11C4D554354
:10553000056002E0194D5543056002E0174D056016
:1055400000BF00BF144D6D6805F0F0010909154D4D
:105550006B5C0568DD4045600F4D6D6805F4E061EA
:10556000090A104D6B5C4568DD4085600A4D6D6829
:1055700005F46051C90A0B4D6B5C4568DD40C560A0
:10558000054D6D6805F44041890B074D6B5CC5689E
:10559000B5FBF3F5056130BD0010024000127A0042
:1055A00000093D00D8010020E801002010B50146A7
:1055B0000022002300204A11012A02D1094C23684D
:1055C00006E0022A02D1074C236A01E0054C636A17
:1055D00001F01F02012494401C400CB1012000E0A6
:1055E000002010BD001002400248406800F00C008E
:1055F000704700000010024001460020034A506836
:1056000020F0F00008435060704700000010024096
:105610001149096821F480310F4A11601146096867
:1056200021F480211160B0F5803F03D0B0F5802FC8
:105630000ED106E00849096841F48031064A11603C
:1056400007E00549096841F4A021034A116000E020
:1056500000BF00BF704700000010024000210B4A4D
:1056600011700A4A203A82F82010012802D004283A
:1056700008D103E00121054A117004E00521034A25
:10568000117000E000BF00BF704700002010024012
:1056900001460020034A506820F4E060084350604F
:1056A000704700000010024001460020034A506885
:1056B00020F4605040EAC100506070470010024082
:1056C000014908667047000000004242024600207F
:1056D000044B586820F47C1042EA01031843014B44
:1056E0005860704700100240014908607047000090
:1056F0003C0442420249096A0143014A116270476F
:105700000010024001460020034A506820F00300C8
:1057100008435060704700000010024038B5002078
:1057200000900024002500BF3120FFF73FFF054611
:105730000098401C00900098B0F5A06F01D0002D9B
:10574000F2D03120FFF732FF08B1012400E000243D
:10575000204638BD024909888143014A11807047BB
:10576000042800400348008840F0100001490880E8
:105770007047000004280040034800884FF6EF718E
:105780000840014908807047042800400146002075
:10579000064A12880A40D0B2044A121F12880A40F0
:1057A00012B108B1012000E0002070470428004039
:1057B00010B50120FFF7EAFF08B1FDF7FBF8022062
:1057C000FFF7E4FF38B10220FFF7C4FFFDF7F2F85E
:1057D0000120044908700520FFF7BCFF00F040F8E5
:1057E00010BD0000B701002029B1064A128802430B
:1057F000044B1A8004E0034A12888243014B1A804A
:10580000704700000028004000B50246FFF7AAFFDD
:10581000100C03490880091D0A80FFF7ADFF00BD89
:105820002028004000B50246FFF79CFF100C0349FA
:105830000880091D0A80FFF79FFF00BD182800405F
:1058400000B50246FFF78EFFC2F30340034908800C
:10585000091D0A80FFF790FF00BD000008280040E6
:1058600000BF0348008800F020000028F9D07047EE
:1058700004280040074800884FF6F77108400549A2
:10588000088000BF0348008800F008000028F9D015
:105890007047000004280040014608687047000077
:1058A0002DE9F84F8146174698460A9C4FF0000AAA
:1058B000D3464D464FF0FF36B9F1000F02D12620F6
:1058C000BDE8F88F00208249C8628248007802282B
:1058D00005D10402780A40EAC8574FEA6828002038
:1058E0007D4988604860401E0860012048610020B2
:1058F000C8600861084600F0F1FB7548406900F097
:10590000007008B10E20DBE7002C21DDB4F5006F3C
:105910001EDC601E2040D8B92046FBF7D3FE009065
:105920006E48046010206D49486040208860002067
:10593000C8604FF480600861084600F02FFC10201A
:10594000FBF79AFA8246BAF1000F03D05046B7E748
:105950002620B5E7009800015F498860084644604A
:105960004FF0FF300860012048610220C86000202D
:105970000861084600F0B2FB5848076011205749FB
:105980004860402088600020C8604FF48060086153
:10599000084600F003FC1120FBF76EFA8246BAF1CC
:1059A000000F01D050468BE74D48007800285AD1AF
:1059B000FDF7D8FA18E04FF4004000F0B9FB78B1D9
:1059C0004FF0000B06E042488030006845F82B009D
:1059D0000BF1010BBBF1080FF5D32035414E03E06D
:1059E0000EB904206CE7761E3948406B40F22A61FC
:1059F00008400028DFD0082000F09AFB20B10820E2
:105A000000F05AFB04205BE7022000F091FB20B17C
:105A1000022000F051FB022052E7202000F088FB1A
:105A200020B1202000F048FB062049E74FF4007029
:105A300000F07EFB28B14FF4007000F03DFB072022
:105A40003EE703E000F0A4FB28602D1D4FF400109A
:105A500000F06EFB0028F5D1FDF786FA40F2FF500A
:105A600000F02AFB31E01E48007801282DD10022E9
:105A700021464846FBF782FC00201B4908701B4961
:105A800008701B4908701248C06B40F22A31084365
:105A90000F49C863012000F01BFB00E0761E15488B
:105AA000006800F4005038B91148007820B90E4859
:105AB000007808B9002EF1D10EB9042000E70A4899
:105AC000007810B1084890F800A05046F8E60000B1
:105AD000008001402800002034AC002020AC0020D1
